S123200010CEB0007F2689BD228A4F5F83000126FB7EE0823416A661E6633D3406A662E665
S1232020653DEBE4E7E4A663E6643DEBE4E7E435063264393416A8621F02ECE42A048D1517
S1232040EDE4EC622A048D0DED621F204D35162A0A8D0D1F104353C30001398D031F1039E7
S123206034164F5F8E00111CFE69636962301F270D594910A3E425EFA3E41A0120EB326203
S123208035901E018C000027065849301F26FA391E018C000027F84456301F26FA39340610
S12320A0ACE12E29201E3406ACE12C2120163406ACE12D19200E3406ACE12F11200634060E
S12320C0ACE127094F5F393406ACE127F7CC0001393406ACE122F620EB3406ACE124EE208A
S12320E0E33406ACE125E620DB3406ACE123DE20D31083000026CD20D4AEC1270710A3C1E6
S123210026F76E846ED43272CE26761F303406ECE8143406BD25543264CE26721F303406F6
S1232120E6E8134F3406BD25623264CC0000ED60CE26761F303406CE26721F303406BD247B
S1232140C53264EC60C30001ED60830001336333CB3440CE26851F301F03E6C4E7644F1FEA
S123216001C6094FBD20D12706E664CB372004E664CB30E7F1CE26761F303406BD252B32A2
S123218062108300001026FFA7ECE814C30001EDE8148300011F033440EC62830001ED629A
S12321A0336533CBE6C4E7F1EC601026FFDBEEE814C600E7C4ECE814326E39327FEC653455
S12321C006CC00003406BD25623264EC67C30001ED678300011F03E6C4E760102700A5E651
S12321E0604F3406BD25A532621083000010270009E660C030E7607E222DE6604F1F01C63F
S1232200614FBD20D910270009E660C057E7607E222DE6604F1F01C6414FBD20D9102700AB
S123222009E660C037E7607E222D7E2284E6604F1F01E6644FBD20D9102700037E2284CEEC
S123224026721F303406E6664F3406BD25623264EC653406CE26721F303406BD24EF3264CA
S1232260CE26721F303406E6624F3406BD25623264EC653406CE26721F303406BD2499329A
S1232280647E21CBE6604F326139327CCC246A3406BD25E43262C63DE761CE267A1F30ED7A
S12322A062BD261AE7603406BD25A53262108300001027001DE6604F3406BD25EE3262EC19
S12322C062C30001ED628300011F03E660E7C47E22A1EE62C600E7C4CE267A1F303406CE27
S12322E026761F303406CC000A3406BD21BB3266E6614FCE23907E20F9CE266E1F303406DB
S1232300CE26761F303406BD255432647E23ACCE266E1F303406CE26761F303406BD249955
S123232032647E23ACCE266E1F303406CE26761F303406BD248632647E23ACCE266E1F30DD
S12323403406CE26761F303406BD24EF32647E23ACCE266E1F303406CE26761F303406BDFE
S123236024C532647E23ACCE266E1F303406CE26761F303406BD24C53264CE266E1F30348E
S123238006CE26851F303406BD255432647E23AC236700252351002F233B002A2325002DC9
S12323A0230F002B22F9003D000023ACE6604F3406BD25EE3262E6604FCE24407E20F9CC38
S12323C024723406BD25E432627E228CCE267A1F303406CE266E1F303406CC000A3406BDF4
S12323E021063266CE267A1F303406BD25E43262BD261AE7603406BD25A53262108300009D
S123240010270032C63DE761CC000A3406BD25EE3262E6604F3406BD25EE3262CE267A1FD0
S123242030ED62EC62C30001ED628300011F03E660E7C47E22A17E23ACE660E7617E2464FF
S1232440243900252439002F2439002A2439002D2439002B23CC003D23C9004323C9006327
S1232460000023BF7E229A3264390A52656164790A00205573653A202B202D202A202F208C
S123248025203D204300AE64EE62C6044FA684A2C0A7805A26F7594F39AE64EE62C6044F52
S12324A0A684A9C0A7805A26F7594F39AE62C6043A4F66825A26FB5939AE624FC60469809C
S12324C05A26FB59398D59108E00214FAE648DEC313F27628E2685568DE2EE628E26858D5F
S12324E05A4D26E7EE628E26858D9F1A0120DD327C30E4EE668D618D27AE688DB15D2707C0
S12325008E268533E48D96AE688D22270A30E48DAA30E48D1826E23264AE64CE26852038C9
S12325208E2685C6046F805A26FB39AE628604E68026034A26F939AE64EE62C6043A33C5C8
S1232540A682A0C2250622085A26F539CCFFFF39CC000139AE64EE62C604A6C0A7805A26A8
S1232560F939AE648DBDAE64EC62E784A70139CC007F203435108D2D27041F1535108D0945
S123258026F83410CC617A201FCC415A201ACC217E20153510CC41468D1D26DECC61668D48
S12325A01626D73410CC3039A163220BE1632507A6622603C601394F5F39E663C17F27F032
S12325C0CC001F20E3EC6234068DA9326226E8CC207E20D4E663C12027D6C10927D2C10A96
S12325E027CE20D3AE62E680271C8D0420F8EC62C10A26088D06C60D2002EC62B600018534
S12326001027F9F7000039B6000185082615CCFFFF39B600015F840827EC8D07C10D26E6B1
S1232620C60A39B60001850827F9F600004F39EE648E00008DE4C17F2714C1082710C10A14
S12326402723AC6224EEE7C030018DB020E68C000027E1C6088DA5C6208DA1C6088D9D3021
S10F26601F335F20CF6FC48D871F10391B
S9030000FC
